{
  "_format": "hh-sol-artifact-1",
  "contractName": "Todo",
  "sourceName": "contracts/Todo.sol",
  "abi": [
    {
      "inputs": [],
      "stateMutability": "nonpayable",
      "type": "constructor"
    },
    {
      "anonymous": false,
      "inputs": [
        {
          "indexed": true,
          "internalType": "address",
          "name": "from",
          "type": "address"
        },
        {
          "indexed": false,
          "internalType": "uint256",
          "name": "timestamp",
          "type": "uint256"
        },
        {
          "indexed": false,
          "internalType": "string",
          "name": "todo",
          "type": "string"
        }
      ],
      "name": "NewTodo",
      "type": "event"
    },
    {
      "inputs": [
        {
          "internalType": "string",
          "name": "_todo",
          "type": "string"
        }
      ],
      "name": "addTodo",
      "outputs": [],
      "stateMutability": "nonpayable",
      "type": "function"
    },
    {
      "inputs": [],
      "name": "getTodos",
      "outputs": [
        {
          "components": [
            {
              "internalType": "string",
              "name": "todo",
              "type": "string"
            },
            {
              "internalType": "address",
              "name": "owner",
              "type": "address"
            },
            {
              "internalType": "bool",
              "name": "completed",
              "type": "bool"
            },
            {
              "internalType": "uint256",
              "name": "id",
              "type": "uint256"
            }
          ],
          "internalType": "struct Todo.todoObject[]",
          "name": "",
          "type": "tuple[]"
        }
      ],
      "stateMutability": "view",
      "type": "function"
    },
    {
      "inputs": [
        {
          "internalType": "uint256",
          "name": "",
          "type": "uint256"
        }
      ],
      "name": "todoList",
      "outputs": [
        {
          "internalType": "string",
          "name": "todo",
          "type": "string"
        },
        {
          "internalType": "address",
          "name": "owner",
          "type": "address"
        },
        {
          "internalType": "bool",
          "name": "completed",
          "type": "bool"
        },
        {
          "internalType": "uint256",
          "name": "id",
          "type": "uint256"
        }
      ],
      "stateMutability": "view",
      "type": "function"
    },
    {
      "inputs": [
        {
          "internalType": "uint256",
          "name": "_id",
          "type": "uint256"
        },
        {
          "internalType": "bool",
          "name": "_completed",
          "type": "bool"
        }
      ],
      "name": "updateTodoStatus",
      "outputs": [],
      "stateMutability": "nonpayable",
      "type": "function"
    }
  ],
  "bytecode": "0x60806040523480156200001157600080fd5b506200005d6040518060400160405280601e81526020017f57656c636f6d6520746f2074686520736d61727420636f6e74726163742e00008152506200006360201b6200057c1760201c565b620001f7565b62000103816040516024016200007a919062000170565b6040516020818303038152906040527f41304fac000000000000000000000000000000000000000000000000000000007bffffffffffffffffffffffffffffffffffffffffffffffffffffffff19166020820180517bffffffffffffffffffffffffffffffffffffffffffffffffffffffff83818316178352505050506200010660201b60201c565b50565b60008151905060006a636f6e736f6c652e6c6f679050602083016000808483855afa5050505050565b60006200013c8262000194565b6200014881856200019f565b93506200015a818560208601620001b0565b6200016581620001e6565b840191505092915050565b600060208201905081810360008301526200018c81846200012f565b905092915050565b600081519050919050565b600082825260208201905092915050565b60005b83811015620001d0578082015181840152602081019050620001b3565b83811115620001e0576000848401525b50505050565b6000601f19601f8301169050919050565b610dd480620002076000396000f3fe608060405234801561001057600080fd5b506004361061004c5760003560e01c806358c2d4691461005157806395ffebf514610084578063c33926cb146100a0578063e1747817146100be575b600080fd5b61006b600480360381019061006691906107c4565b6100da565b60405161007b9493929190610a50565b60405180910390f35b61009e6004803603810190610099919061077b565b6101cf565b005b6100a861031c565b6040516100b59190610a0c565b60405180910390f35b6100d860048036038101906100d391906107f1565b610488565b005b600081815481106100ea57600080fd5b906000526020600020906003020160009150905080600001805461010d90610c32565b80601f016020809104026020016040519081016040528092919081815260200182805461013990610c32565b80156101865780601f1061015b57610100808354040283529160200191610186565b820191906000526020600020905b81548152906001019060200180831161016957829003601f168201915b5050505050908060010160009054906101000a900473ffffffffffffffffffffffffffffffffffffffff16908060010160149054906101000a900460ff16908060020154905084565b600060405180608001604052808381526020013373ffffffffffffffffffffffffffffffffffffffff1681526020016000151581526020016000805490508152509080600181540180825580915050600190039060005260206000209060030201600090919091909150600082015181600001908051906020019061025592919061063e565b5060208201518160010160006101000a81548173ffffffffffffffffffffffffffffffffffffffff021916908373ffffffffffffffffffffffffffffffffffffffff16021790555060408201518160010160146101000a81548160ff0219169083151502179055506060820151816002015550503373ffffffffffffffffffffffffffffffffffffffff167f9807046998e401797e01776e2f1e343cd6ce275a52ba784c133529ec1ca9a0ac4283604051610311929190610abc565b60405180910390a250565b60606000805480602002602001604051908101604052809291908181526020016000905b8282101561047f578382906000526020600020906003020160405180608001604052908160008201805461037390610c32565b80601f016020809104026020016040519081016040528092919081815260200182805461039f90610c32565b80156103ec5780601f106103c1576101008083540402835291602001916103ec565b820191906000526020600020905b8154815290600101906020018083116103cf57829003601f168201915b505050505081526020016001820160009054906101000a900473ffffffffffffffffffffffffffffffffffffffff1673ffffffffffffffffffffffffffffffffffffffff1673ffffffffffffffffffffffffffffffffffffffff1681526020016001820160149054906101000a900460ff1615151515815260200160028201548152505081526020019060010190610340565b50505050905090565b3373ffffffffffffffffffffffffffffffffffffffff16600083815481106104b3576104b2610cc4565b5b906000526020600020906003020160010160009054906101000a900473ffffffffffffffffffffffffffffffffffffffff1673ffffffffffffffffffffffffffffffffffffffff161461053b576040517f08c379a000000000000000000000000000000000000000000000000000000000815260040161053290610a9c565b60405180910390fd5b80600083815481106105505761054f610cc4565b5b906000526020600020906003020160010160146101000a81548160ff0219169083151502179055505050565b610612816040516024016105909190610a2e565b6040516020818303038152906040527f41304fac000000000000000000000000000000000000000000000000000000007bffffffffffffffffffffffffffffffffffffffffffffffffffffffff19166020820180517bffffffffffffffffffffffffffffffffffffffffffffffffffffffff8381831617835250505050610615565b50565b60008151905060006a636f6e736f6c652e6c6f679050602083016000808483855afa5050505050565b82805461064a90610c32565b90600052602060002090601f01602090048101928261066c57600085556106b3565b82601f1061068557805160ff19168380011785556106b3565b828001600101855582156106b3579182015b828111156106b2578251825591602001919060010190610697565b5b5090506106c091906106c4565b5090565b5b808211156106dd5760008160009055506001016106c5565b5090565b60006106f46106ef84610b11565b610aec565b9050828152602081018484840111156107105761070f610d27565b5b61071b848285610bf0565b509392505050565b60008135905061073281610d70565b92915050565b600082601f83011261074d5761074c610d22565b5b813561075d8482602086016106e1565b91505092915050565b60008135905061077581610d87565b92915050565b60006020828403121561079157610790610d31565b5b600082013567ffffffffffffffff8111156107af576107ae610d2c565b5b6107bb84828501610738565b91505092915050565b6000602082840312156107da576107d9610d31565b5b60006107e884828501610766565b91505092915050565b6000806040838503121561080857610807610d31565b5b600061081685828601610766565b925050602061082785828601610723565b9150509250929050565b600061083d838361098b565b905092915050565b61084e81610ba8565b82525050565b61085d81610ba8565b82525050565b600061086e82610b52565b6108788185610b75565b93508360208202850161088a85610b42565b8060005b858110156108c657848403895281516108a78582610831565b94506108b283610b68565b925060208a0199505060018101905061088e565b50829750879550505050505092915050565b6108e181610bba565b82525050565b6108f081610bba565b82525050565b600061090182610b5d565b61090b8185610b86565b935061091b818560208601610bff565b61092481610d36565b840191505092915050565b600061093a82610b5d565b6109448185610b97565b9350610954818560208601610bff565b61095d81610d36565b840191505092915050565b6000610975601d83610b97565b915061098082610d47565b602082019050919050565b600060808301600083015184820360008601526109a882826108f6565b91505060208301516109bd6020860182610845565b5060408301516109d060408601826108d8565b5060608301516109e360608601826109ee565b508091505092915050565b6109f781610be6565b82525050565b610a0681610be6565b82525050565b60006020820190508181036000830152610a268184610863565b905092915050565b60006020820190508181036000830152610a48818461092f565b905092915050565b60006080820190508181036000830152610a6a818761092f565b9050610a796020830186610854565b610a8660408301856108e7565b610a9360608301846109fd565b95945050505050565b60006020820190508181036000830152610ab581610968565b9050919050565b6000604082019050610ad160008301856109fd565b8181036020830152610ae3818461092f565b90509392505050565b6000610af6610b07565b9050610b028282610c64565b919050565b6000604051905090565b600067ffffffffffffffff821115610b2c57610b2b610cf3565b5b610b3582610d36565b9050602081019050919050565b6000819050602082019050919050565b600081519050919050565b600081519050919050565b6000602082019050919050565b600082825260208201905092915050565b600082825260208201905092915050565b600082825260208201905092915050565b6000610bb382610bc6565b9050919050565b60008115159050919050565b600073ffffffffffffffffffffffffffffffffffffffff82169050919050565b6000819050919050565b82818337600083830152505050565b60005b83811015610c1d578082015181840152602081019050610c02565b83811115610c2c576000848401525b50505050565b60006002820490506001821680610c4a57607f821691505b60208210811415610c5e57610c5d610c95565b5b50919050565b610c6d82610d36565b810181811067ffffffffffffffff82111715610c8c57610c8b610cf3565b5b80604052505050565b7f4e487b7100000000000000000000000000000000000000000000000000000000600052602260045260246000fd5b7f4e487b7100000000000000000000000000000000000000000000000000000000600052603260045260246000fd5b7f4e487b7100000000000000000000000000000000000000000000000000000000600052604160045260246000fd5b600080fd5b600080fd5b600080fd5b600080fd5b6000601f19601f8301169050919050565b7f596f7520617265206e6f7420746865206f776e6572206f6620746f646f000000600082015250565b610d7981610bba565b8114610d8457600080fd5b50565b610d9081610be6565b8114610d9b57600080fd5b5056fea2646970667358221220e2b6cfedf55ccae4b584c896490b25bdbfeb5a84976a4d1539d47aa547fb660a64736f6c63430008070033",
  "linkReferences": {},
  "deployedLinkReferences": {}
}